:020000040800F2
:10000000800A00209D01000887260008732500084B
:1000100085260008A50F0008C13000080000000078
:100020000000000000000000000000001127000890
:100030000911000800000000A92600081527000883
:10004000B7010008B7010008B7010008B7010008B0
:10005000B7010008B7010008B7010008B7010008A0
:10006000B7010008B7010008B7010008B701000890
:10007000B7010008B7010008B7010008B701000880
:10008000B7010008B7010008B7010008B701000870
:10009000B7010008B7010008B7010008B701000860
:1000A000B7010008B7010008B7010008B701000850
:1000B000B7010008B7010008B7010008B701000840
:1000C000B7010008B7010008B7010008B701000830
:1000D000B7010008B7010008B7010008E92D0008C2
:1000E000B7010008B7010008B7010008B701000810
:1000F000B7010008B7010008B7010008B701000800
:10010000B7010008B7010008B7010008B7010008EF
:10011000B7010008B7010008D9280008B701000896
:10012000A90F0008B7010008B7010008B7010008CF
:10013000B7010008B7010008B7010008B7010008BF
:10014000B7010008B7010008B7010008B7010008AF
:10015000B7010008B7010008B7010008B70100089F
:10016000B7010008B7010008B7010008B70100088F
:10017000B7010008B7010008B7010008000000003F
:10018000B7010008B7010008DFF80CD000F078FBD9
:1001900000480047353A0008800A0020064880479A
:1001A00006480047FEE7FEE7FEE7FEE7FEE7FEE75C
:1001B000FEE7FEE7FEE7FEE7852800088901000864
:1001C0002DE9F05F0546002092469B46884606468C
:1001D000814640241BE0284641464746224600F01F
:1001E00084F953465A46C01A914110D31146184615
:1001F000224600F06BF92D1A67EB01084F462246A4
:100200000120002100F062F917EB00094E41201E89
:10021000A4F10104DFDC484631462A464346BDE8E6
:10022000F09FD2B201E000F8012B491EFBD27047CB
:100230000022F6E710B513460A4604461946FFF7B2
:10024000F0FF204610BD30B505462A460B4612F891
:10025000010B13F8014B08B1A042F8D01CB10028E3
:1002600002D06D1CF1E7284630BD421C10F8011B7E
:100270000029FBD1801A704770B5064602F036FFA0
:10028000046805460A220021304600F08DF92C60F2
:1002900070BD2DE9FE4F81EA030404F0004421F013
:1002A000004100944FF0000B23F0004350EA01049A
:1002B0005ED052EA03045BD0C3F30A54C1F30A557B
:1002C0002C44A4F2F3340194A0FB0254C1F31301B3
:1002D00041F48011C3F3130343F4801301FB024480
:1002E00000FB034E840A970A44EA815447EA835785
:1002F000A4FB076802958D0A05FB07854FEA932C3E
:1003000004FB0C542705029D4FEA065847EA1637AE
:10031000B5EB08056EEB070C870E920E47EA8117C6
:1003200042EA8312A7FB0201B6EB0B0164EB000467
:100330002B0D43EA0C335E1844EB1C50DA46514651
:10034000E7FB0201C5F313044FEA0B3343EA1453EE
:100350004FEA0432019C43EA0603A4F10C04029420
:10036000009CCDE900B400F066F903B0BDE8F08F61
:1003700000200146F9E72DE9F04D81EA030404F07D
:10038000004B21F0004514464FF0000A23F00041D5
:1003900050EA050220D054EA01021DD0C5F30A57E5
:1003A0000246C5F31303C1F31300C1F30A5640F428
:1003B000801543F48013A7EB0608101BD64608F2FD
:1003C000FD3873EB050002D308F1010801E0921833
:1003D0005B41B8F1000F03DA00200146BDE8F08D63
:1003E00000204FF48011064684460EE0171B73EB85
:1003F000050705D3121B63EB050306434CEA010C0A
:1004000049084FEA300092185B4150EA0107EDD1EC
:1004100052EA030012D082EA040083EA050108438D
:1004200005D0101BAB4106D20122002306E00022BA
:100430004FF0004302E06FF0010253101AEB060088
:100440004CEB085110EB0A0041EB0B01BDE8F04DFD
:1004500000F0E2B80EB540F2334102910021CDE93F
:1004600000110A460B4600F0E6F803B000BDC1F3E8
:100470000A5210B5C1F3130140F2FF3341F4801169
:100480009A4201DA002010BD40F233439A42A2F2B0
:10049000334203DC524200F028F810BD904010BDFA
:1004A00030B50B46014600202022012409E021FA44
:1004B00002F59D4205D303FA02F5491B04FA02F541
:1004C0002844151EA2F10102F1DC30BD202A04DB14
:1004D000203A00FA02F1002070479140C2F1200357
:1004E00020FA03F3194390407047202A04DB203A96
:1004F00021FA02F00021704721FA02F3D040C2F144
:100500002002914008431946704700000FB40023B1
:1005100000B589B00CA900910B996FF00042CB6037
:100520001E4B06931E4B07930423CDE901321D4A4F
:10053000089202466B46002000F068FA09B05DF8A8
:1005400014FB70B586B006464FF0FF300091CDE940
:100550000101002015460C4604903246694604A865
:10056000FFF7D4FF02460498211825B108B10846C8
:1005700000E020462860049800280DD0002A02DD03
:100580000098884208D0081B0094CDE90104324647
:10059000694604A8FFF7BAFF06B070BD450C000815
:1005A000630C0008D10800082DE9F04791460F467A
:1005B00080460446002614F8015B2DB100F084F952
:1005C0000068405DC007F6D12B2D02D02D2D18D02C
:1005D000641E4A463946204600F054FB27B139686C
:1005E000A14201D1C7F8008071054FF002040BD57C
:1005F0004042002803DD02F079FD0460A007BDE859
:10060000F08746F48066E4E70028F8DA02F06EFD31
:1006100004606FF00040F2E710B5141E73F100049F
:1006200008DA401C41F1000192185B411A4301D1E4
:1006300020F0010010BD2DE9F04D92469B4611B10E
:10064000B1FA81F202E0B0FA80F220329046FFF770
:100650003DFF04460F4640EA0A0041EA0B015346BB
:100660005A46084313D0114653EA010019D0C8F185
:1006700040025046FFF739FF05460E4650465946A0
:100680004246FFF723FF084305D0012004E020463F
:100690003946BDE8F08D0020054346EAE0762C435C
:1006A00037430A986305E40AA0EB08000022FD0A1C
:1006B00044EA47540A3002D500200146E9E7010523
:1006C00010196941DDE9084500196941BDE8F04D9F
:1006D000A2E72DE9FE4F804681EA0300C00F0C46D9
:1006E000009021F0004123F00045B8EB0200A94141
:1006F00005D24046214690461C460B46024623F052
:100700000040104347D0270DC7F30A00C3F30A5136
:100710000290401A019040286BDAC3F3130040F4B2
:10072000801B0098924620B10023D2EB030A63EBB2
:100730000B0B01985946C0F140025046FFF7C6FE28
:1007400006460D4650465946019A00F0ABF810EBAC
:1007500008006141002487EA115284EAE7731A43D2
:1007600040D0009A62B3019A012A4FEA075215DC81
:10077000001B61EB02014FF0004202EA0752CDE993
:100780000042001C41F5801132462B46FFF753FF13
:1007900003B0BDE8F08F40462146F9E7001B61EB4E
:1007A0000201001C41F5801300185B412018A2F5DE
:1007B000001747EB030140EAD570B6196D4111E00F
:1007C0006D084FEA360645EAC0754FEA0752001B2E
:1007D00061EB0201001C41F5801149084FEA30002D
:1007E0000019514132462B4603B0BDE8F04FFFF7E8
:1007F00013BF0098012240000023D0EB020263EBFC
:10080000E073009821464FEAE074B8EB000061EB1A
:100810000401E9E783F000435BE781F0004158E71A
:10082000C1F30A52C1F3130140F2FF3341F48011C6
:100830009A4202DA00200146704740F233439A425E
:10084000A2F2334202DC5242FFF74FBEFFF73EBE38
:1008500030B5041E71F1000404DB4FF00044404247
:1008600064EB0101141E73F1000405DB1C464FF01C
:100870000043524263EB0403994208BF904230BDEB
:10088000064C074D06E0E06840F0010394E80700DD
:1008900098471034AC42F6D3FFF77AFC503C00087E
:1008A000703C0008202A06DBCB17203A41FA02F000
:1008B00043EAE07306E041FA02F3D040C2F12002BD
:1008C000914008431946704700487047E03B0008D4
:1008D00010B50446FFF7F8FF0068005D00F0010066
:1008E00010BD00002DE9FF4F087883B09946FF281E
:1008F00005D0491C2D2804D00024002008E0002049
:100900000BE00124F9E700EB800003EB4000491CF9
:100910000B78FF2BF7D104B14042002302931478E7
:1009200019461D462D2C01D02B2C04D1521C2D2CE8
:1009300013D000240294AA461478FF2C0FD00A2565
:10094000A3FB057801FB05814FF0000C03FB0C11A4
:10095000521CE3194AEB0101EEE70124EAE7814466
:1009600053EA010002D019F5C87F06DA0398002186
:10097000C0E9001107B0BDE8F08F0025AE4E2F464C
:10098000DFF8B882184600F0DAF9CDE90001B9F1D4
:10099000000002DAC9F1000400E004460023A74A7F
:1009A0001AEB030B42EB045A12E0E00707D02A4689
:1009B000334638464146FFF76CFC074688462A46D0
:1009C000334610461946FFF764FC05460E46641090
:1009D000002CEAD1DDE90001B9F1000F5A46534677
:1009E00006DAFFF7C8FC3A464346FFF7C4FC05E0C9
:1009F000FFF74FFC3A464346FFF74BFC029A0AB119
:100A000081F00041039AC2E90001B3E72DE9FF4FED
:100A10001F468DB0D7E901464FF0FF382E204546DE
:100A20004FF000090B90B9696D1C0E988847396A20
:100A3000824688470028F6D1BAF1FF3F0AD024F455
:100A4000D064002E11DDBAF12B0F08D0BAF12D0FB2
:100A50000BD102E0404611B08DE744F48064B969DF
:100A60006D1C0E9888478246761E6946600501D542
:100A70002D2000E02B208DF8000001F1010B0DF17D
:100A8000200809E0B9696D1C0E98884782460F98C6
:100A900044F40074761E0560002E02DDBAF1300FBA
:100AA000F0D00B998A453ED144F0800406E00F99BE
:100AB000681CA9F1010944F400740860B9696D1C4F
:100AC000761E0E98884782463028F0D02BE00B998E
:100AD0008A4505D1200603D444F08004761E18E030
:100AE000504602F003FC08B30DF11301761E44F4E6
:100AF00000748B4508D2AAF130000BF8010B2006D8
:100B000007D5A9F1010003E0200602D409F1010094
:100B10008146A00502D50F99681C0860B9696D1C53
:100B20000E9888478246002ED1DC53E0002E51DD1E
:100B3000BAF1650F02D0BAF1450F4BD1A00549D5E6
:100B4000B9696D1C24F44074761E0E98884782465D
:100B5000002E0CDD2B2804D0BAF12D0F07D144F460
:100B60008074B9696D1C0E9888478246761EE00530
:100B700001D52D2100E02B2108F8011BCDF82C8098
:100B800021E00DF12901761E44F4007488450CD251
:100B9000AAF1300010F0FF0088F8000002D10B9994
:100BA000884509D908F1010806E0E00501D5244887
:100BB00001E042F20F708146B9696D1C0E988847BA
:100BC00082460F980560002E04DD504602F08EFB31
:100BD0000028D6D1F9690E988847FF208BF80000CD
:100BE00088F800000020069007904B466A4608A946
:100BF00006A8FFF777FEA00502D46FF001002AE7F0
:100C000014F0240F0AD0E00714D1DDE90612386889
:100C1000031D3B600068C0E900120BE0DDE906013E
:100C200000F099F80146E00704D13868021D3A60E7
:100C30000068016028460EE7000014400000F03F05
:100C4000F1D8FFFF426842B1016811F8013B23B1BE
:100C5000521EC0E90012184670470121C160881E6B
:100C6000704742685AB1C368016843B983688B42D0
:100C700005D0491E521CC0E90012002070474FF0F9
:100C8000FF3070472DE9F05F824600780027154657
:100C90008B460AF10104B946302801D09DB113E01A
:100CA00014F8010B0127782803D0582801D045B14A
:100CB0000AE00DB1102D07D10027102514F8010B03
:100CC00002E0082500E00A250026B0460EE005FBFC
:100CD000080005FB06F1012701EB10461FFA80F81A
:100CE000B6F5803F00D3B94614F8010B294600F051
:100CF00018F80028EBDABBF1000F05D00FB1641E25
:100D000000E05446CBF80040B9F1000F06D002F0E5
:100D1000EDF902210160C81EBDE8F09F48EA0640D7
:100D2000FAE73A2800D2303820F02002412A01D3D5
:100D3000A2F13700884201D34FF0FF3070470EB563
:100D400040F2334202920022CDE900221346FFF71F
:100D500072FC03B000BD01F0004330B421F000414B
:100D600050EA010206D00A0DA2F56072C1F3130128
:100D7000002A02DC30BC00207047440F44EAC10462
:100D8000C100E01830BC00EBC250AFF30080002976
:100D9000A8BF7047401C490008BF20F00100704701
:100DA00010B4B0FA80FC00FA0CF050EA010404BF61
:100DB00010BC704749B1CCF1200421FA04F411FAB7
:100DC0000CF118BF012121430843A3EB0C01CB1DFB
:100DD0004FEA00614FEA102042BF002010BC70476C
:100DE00000EBC35010440029A4BF10BC7047401C46
:100DF000490008BF20F0010010BC704710B5014643
:100E0000806B026C12F0500F05D0806BC26CBDE895
:100E1000104008461047016C41F4007101640168FC
:100E20008A6812F0405F17D18269AAB9CA6A12F4BF
:100E3000700F02D08A6852050ED44A6822F0200250
:100E40004A60016C21F480710164016CC90403D40F
:100E5000016C41F00101016400F0FEF910BD10B514
:100E6000806B40210164416C41F00401416400F059
:100E7000F5F910BD10B5806B00F0EFF910BD000062
:100E8000454910B54A6822F440324A604A684368CE
:100E90001A434A6001684A6822F480724A60016815
:100EA0004A68036942EA03224A6001684A6822F0FC
:100EB00040724A6001684A6883681A434A60016860
:100EC0008A6822F400628A6001688A68C3681A43EB
:100ED0008A60816A6FF07062D14201688A6822F08C
:100EE00070628A6001688A680CD0836A1A438A60DB
:100EF00001688A6822F040528A6001688A68C36A81
:100F00001A4301E022F040528A6001688A6822F0A8
:100F100002028A6001688A68836942EA43028A6041
:100F2000016A002901684A680FD042F400624A60F1
:100F300001684A6822F460424A6001684A68174CB6
:100F4000436A04EB43331A4301E022F400624A602F
:100F50000168CA6A22F47002CA620168CA6A838B95
:100F60000F4C04EB03531A43CA6201688A6822F4E7
:100F700000728A6001688A68036B42EA43228A60D1
:100F800001688A6822F480628A6001688A68406920
:100F900042EA8020886010BD0023014000E0FFFF8E
:100FA0000000F0FFFEE700002DE9FC5FDFF89C8009
:100FB0000024254EDFF898B06427A8F57A7AA8F5C2
:100FC0007F79A8F581653019CDE9007004EBC40084
:100FD00000EB04110AEBC10208EB440309EB8401A6
:100FE0003BF8140002F086FD25F81400641C052C63
:100FF000E9DB154829881038428891420FD8698862
:10100000828891420BD8A988C288914207D8E98882
:101010000289914203D82989408981420FD90D481C
:101020000068C0070BD10C49096848620A4801F002
:1010300041F800224FF48051084800F069FCBDE8F7
:10104000FC5F074800F016BA10000020B005002031
:101050000C0100200010004090000020000C024015
:101060004801002001681823CAB2103AB2FBF3F21B
:10107000054B6FF30901032A9B5CC36500D9091D69
:1010800081650846704700003E3B000810B50146E8
:1010900000208B698A6A4FF0C07453B1B3F5005FCA
:1010A00015D072B1012A0CD0022A0AD0032A09D124
:1010B00004E01AB1012A06D0022A03D1C96AC90183
:1010C00000D5012010BDC96AA142FAD010BD002A86
:1010D000F7D0012AF2D0022AF3D0032AF3D010BDB0
:1010E00030B50468256825F48025256004686360B0
:1010F0008368402B036803D099600068C26030BDEC
:101100009A600068C16030BD7047000078B5002467
:10111000009490F83C20012A19D0012280F83C204C
:101120000A6807230568092A13D9EE680A3A02EB10
:10113000420293409E43EE600B788A680A3B03EBC1
:1011400043039A400368DD682A43DA6010E0022016
:1011500078BD2E6902EB420293409E432E610B78CC
:101160008A6803EB43039A4003681D692A431A61A6
:101170004A681F23072A13D205686E6B521E02EBC2
:10118000820293409E436E630B790A885B1E92B283
:1011900003EB83039A4003685D6B2A435A6327E09D
:1011A00005680D2A12D22E6BD21F02EB82029340E9
:1011B0009E432E630B790A88DB1F92B203EB8303F5
:1011C0009A4003681D6B2A431A6311E0EE6A0D3AD8
:1011D00002EB820293409E43EE620B790A880D3B3C
:1011E00092B203EB83039A400368DD6A2A43DA6212
:1011F000164B0568144A9D4206D10D68122D03D185
:10120000556845F48005556005689D4218D10B6806
:10121000102B01D0112B13D1536843F400035360FA
:10122000096810290CD10A490A4A0968B1FBF2F190
:1012300001EB8101490000E0491E00910029FBD12A
:1012400080F83C40002078BD002301400020014090
:101250004000002040420F0070477047704770B553
:1012600004004FF0000503D0206C002610B107E009
:10127000012070BD666484F83C60204600F01AF8D6
:10128000206CC00610D4206C20F4885040F002007E
:1012900020642046FFF7F4FD6664206C20F0020015
:1012A00040F00100206400E0012584F83C602846FD
:1012B00070BD000070B506460068194986B08842C6
:1012C0002CD118480025016841F480710160006844
:1012D000694600F4807005901F2000900320CDE93E
:1012E0000105114800F03CFA114C1048C4E9000512
:1012F0000015A560C4E90350400060618000A06152
:101300004011C4E907052046656200F083F918B171
:101310007A2108A001F0D5FEB463A66306B070BDC3
:1013200000200140443802400000024010640240A6
:10133000480100202E2E2F5372632F73746D3332A9
:10134000663478785F68616C5F6D73702E6300003F
:10135000F8B50E4600210446009190F83C000128A3
:1013600007D0012084F83C0020688368DB0702D0A6
:1013700011E00220F8BD836843F0010383602D482B
:101380002D4B0068B0FBF3F000EB400000E0401E86
:1013900000900028FBD120688368DB0748D0236CCD
:1013A00040F20165AB4343F4807323644068400519
:1013B00005D5206C20F4005040F480502064206C4F
:1013C000C00404D5606C20F00600606400E0616435
:1013D00084F83C10A16B1A48184DC863A16B1948DA
:1013E0000864A16B1848C86421686FF02200086087
:1013F0002068416841F0806141602068816841F463
:10140000807181602168134632464C31A06B00F038
:101410006BF96868C006206802D00C49884207D181
:10142000816811F0405F03D1816841F080418160A3
:101430000020F8BD4000002040420F000023014082
:10144000FD0D0008750E00085F0E00080020014029
:1014500090F83510022903D08021416501207047A2
:10146000052180F835100068016821F00101016054
:10147000002070472DE9F84304464FF00009CDF8ED
:10148000009063484FF41651A56D0068B0FBF1F76A
:101490002E6894F85C10082000FA01F131420FD058
:1014A00021680A6852070BD50A6822F004020A6014
:1014B00094F85C108840A860606D40F001006065A1
:1014C00094F85C104FF0010808FA01F0304208D09F
:1014D00021684969090604D5A860606D40F00200E2
:1014E000606594F85C1004208840304208D0216880
:1014F0000968890704D5A860606D40F00400606544
:1015000094F85C1010208840304218D02168096897
:10151000090714D5A86020680168490304D500684C
:10152000000308D5A16C07E00168C90503D4016870
:1015300021F008010160216C09B12046884794F828
:101540005C1020208840304231D021680968C906EB
:101550002DD5A86094F8350005282068016806D0CC
:10156000490347D5006800031DD4616C1CE021F0DD
:10157000160101602068416921F080014161206C01
:1015800008B9A06C20B12068016821F00801016051
:1015900094F85C103F208840A86084F8349084F868
:1015A0003580216D1FE0E16B09B120468847606DF1
:1015B00000282BD0606DC00714D0052084F83500BA
:1015C0002068016821F0010101600098401C009032
:1015D000B84203D820680068C007F6D184F8349078
:1015E00084F83580E16C002910D001B02046BDE8B8
:1015F000F04308470168C905D5D4016821F01001FE
:10160000016084F8349084F83580CCE7BDE8F88335
:10161000400000202DE9F041044600F07FF9064625
:101620005CB1002584F83450022084F8350020682D
:10163000016821F0010101600DE00120BDE8F081A9
:1016400000F06CF9801B052805D920206065032077
:1016500084F83500F2E720680068C007F0D12268FE
:10166000116820480140D4E901031843D4E9033646
:101670003343184363691843A3691843E369184364
:10168000236A18430843616A042903D1D4E90B1380
:1016900019430843106020684069666A20F007011A
:1016A00030460E43012704280CD1A06A0643E06AA5
:1016B00040B12046FFF7EAFC20B14020606584F885
:1016C0003570BAE7206846612046FFF7CBFC94F8F6
:1016D0005C203F2191408160656584F83570002071
:1016E000ACE700003F8010F02DE9F0410446866D24
:1016F00090F83400002501280DD0012084F8340032
:1017000094F835700020012F07D084F834000225AA
:101710002846BDE8F0810220FBE7022784F83570F7
:1017200060652046FFF7DCFC94F85C103F208840A1
:10173000B0602068016841F01601016020684169CD
:1017400041F080014161206C20B12068016841F0C6
:10175000080101602068016841F001010160D7E7DC
:101760002DE9F84FDFF87CB100224FF001084FF06F
:10177000030A4FF00F090BF1040E00BF0B6808FAC3
:1017800002F42340A3426ED14D68022D01D0122DE8
:101790000ED1D50800EB850CDCF820505607F70E6B
:1017A00009FA07F6B5430E69BE402E43CCF8206017
:1017B000066855000F790AFA05FC07F0030726EAC8
:1017C0000C06AF40374307604E68012E05D0022E4D
:1017D00003D0112E01D0122E0ED18668CF6826EAD2
:1017E0000C06AF40374387604668A6430C79C4F3C4
:1017F0000014944034434460C6688C6826EA0C06A2
:10180000AC403443C4604C68E40065D5364C256870
:1018100045F480452560246822F0030504F48044E3
:101820000094324C2E19D6F8084895072F0F09FA64
:1018300007F5AC432E4DA84201D1002524E02D4DE3
:10184000A84201D101251FE02B4DA84201D102255C
:101850001AE02A4DA84201D1032515E0284DA842DF
:1018600002D1042510E037E0264DA84201D105251C
:101870000AE0254DA84201D1062505E0234DA842E6
:1018800001D1072500E00825BD402543C6F80858CA
:10189000DBF800405D464E689C43F60300D51C43D0
:1018A0002C60DEF8004075464E689C43B60300D5B8
:1018B0001C432C600B4D08352C684E689C43F60287
:1018C00000D51C432C60074D0C352C684E689C439A
:1018D000B60200D51C432C60521C102AFFF44EAFF8
:1018E000BDE8F88F003C0140443802400030014020
:1018F000000002400004024000080240000C0240C8
:10190000001002400014024000180240001C024077
:101910000AB1816170470904FBE700000148806853
:1019200070470000340000200248816802781144AA
:1019300081607047340000200B4810B5016841F405
:1019400000710160016841F480610160016841F447
:1019500080710160032000F097F8002000F006F885
:1019600000F024F8002010BD003C024070B50D4D81
:1019700004464FF47A712878B1FBF0F00A490968FF
:10198000B1FBF0F000F01BFB48B9102C07D200228D
:101990002146501E00F058F800206C6070BD0120F8
:1019A00070BD000034000020400000201F4808B532
:1019B000016841F480410160006800F480400090BB
:1019C0001A48001F016841F080510160006800F072
:1019D00080500090032000F057F8002211466FF06D
:1019E0000B0000F031F8002211466FF00A0000F001
:1019F0002BF8002211466FF0090000F025F80022B4
:101A00001146501F00F020F800221146101F00F070
:101A10001BF800221146901E00F016F80022BDE8C7
:101A200008401146501E00F00FB800004438024034
:101A300000F01F02012191404009800000F1E020E8
:101A4000C0F8001170470000F0B40E4B1B680C4644
:101A5000C3F30223C3F10705042D00D90425191D82
:101A6000072901D2002300E0DB1E012606FA05F15A
:101A7000491E214099409E40761E16403143F0BCDD
:101A800000F002BE0CED00E0064900F00702086815
:101A90004FF6FF03184040EA0220034A1043086053
:101AA000704700000CED00E00000FA052DE9F0475A
:101AB0000E46050065D0DFF81481D8F80000F7B2B3
:101AC00000F00F00B04207D288F80070D8F800008C
:101AD00000F00F00B04254D128683D4C810712D568
:101AE000400703D5206840F4E050206028780007C4
:101AF00003D5206840F4604020602068A96820F089
:101B0000F000084320602878C0072DD0304968686D
:101B10000839012812D0022813D0032811D00968EF
:101B2000890700292DDA216821F003010143216092
:101B3000FFF7F4FE814641F2883A0EE00968890316
:101B4000EFE709688901ECE7FFF7E8FEA0EB090180
:101B5000514502D90320BDE8F0872068696800F08C
:101B60000C00B0EB810FEFD1D8F80010404601F027
:101B70000F01B14207D90770006800F00F00B042B2
:101B800001D00120E7E72878400705D52068E968FB
:101B900020F4E050084320602878000706D520682C
:101BA000296920F4604040EAC100206000F03CF860
:101BB0002168084AC1F30311515CC8400649086016
:101BC0000020FFF7D3FE0020C5E70000003C0240E4
:101BD00008380240463B00084000002001480068E9
:101BE000704700004000002004480549006809686B
:101BF000044AC1F38221515CC84070474000002074
:101C000008380240563B0008044805490068096846
:101C1000044AC1F34231515CC84070474000002083
:101C200008380240563B0008154810B5006810F00F
:101C30000C02144813D04110042A0FD0082A0ED1E8
:101C40000F4C241F2268236802F03F025B0207D575
:101C50002068C0F38810A0FB010106E0084610BD13
:101C60002168C1F38811A1FB00010023FEF7A8FA47
:101C70002168C1F30141491C4900B0FBF1F010BDDE
:101C8000083802400024F4002DE9F84F050076D012
:101C90002878DFF8F8B2BE4CC00749D0DBF8001056
:101CA0005846C1F38101012908D00068C0F38100C2
:101CB00002280AD1201D0068400206D52068800352
:101CC00036D568680028E2D032E06868B0F5803F19
:101CD00010D0B0F5A02F206810D020F48030206004
:101CE000206820F4802020606868A0B1FFF716FE0D
:101CF00006460CE0206840F48030F4E740F4802091
:101D00002060F7E7FFF70AFE801B642873D820687D
:101D10008003F7D50CE0FFF701FE064605E000BFA3
:101D2000FFF7FCFD801B6428F0D820688003F7D4FF
:101D30002878DFF8608280074FF000093ED5DBF895
:101D40000010584611F00C0F09D00068C0F3810054
:101D500002280BD18D48001F0068400206D420687D
:101D6000800715D5E868012809D111E0E868B8B105
:101D70000120C8F80000FFF7D1FD064605E002E1AA
:101D8000FFF7CCFD801B0228C0D820688007F7D55C
:101D90002068296920F0F80040EAC10020600DE0C9
:101DA000C8F80090FFF7BAFD064604E0FFF7B6FD5D
:101DB000801B02281FD820688007F7D428780007E6
:101DC00022D5724E744869696C3671B10121016087
:101DD000FFF7A4FD074604E0FFF7A0FDC01B0228A3
:101DE00009D830688007F7D50EE0C0F80090FFF7FB
:101DF00095FD074605E083E0FFF790FDC01B022834
:101E00007ED830688007F7D42878400768D5DFF897
:101E10007CA100270AF1380ADAF80000C0000BD4D0
:101E2000DAF8001041F08051CAF80010DAF800002A
:101E3000012700F080500090584E3068C00510D443
:101E4000306840F480703060FFF768FD009005E076
:101E5000FFF764FD0099401A022851D83068C00588
:101E6000F6D54A4EA868683601280FD00528306894
:101E700010D020F001003060306820F004003060A5
:101E8000A868B8B1FFF74AFD00900FE0306840F055
:101E90000100F4E740F004003060F7E7FFF73EFD93
:101EA0000099411A41F28830814264D83068800735
:101EB000F4D50EE0FFF732FD009007E0FFF72EFDAE
:101EC0000099411A41F28830814254D83068800725
:101ED000F4D42FB1DAF8001021F08051CAF80010C4
:101EE000A869C0B3DBF80010C1F3810102294AD010
:101EF0000228484607D0C8F86000FFF70FFD00E051
:101F000039E005463AE04746C8F86000FFF706FDAD
:101F1000064604E0FFF702FD801B02282BD820684C
:101F20008001F7D4D5E907010843A96A1C4A49088A
:101F300002EB01416A6A41EA8211084395F82C10CC
:101F400040EA01611148001F016001203866FFF777
:101F5000E5FC054605E014E0FFF7E0FC401B022825
:101F600009D820688001F7D50BE000BFFFF7D6FC49
:101F7000401B022802D90320BDE8F88F20688001A9
:101F8000F4D40020F8E70120F6E70000083802400A
:101F90000038024000004742800E47420070004077
:101FA0000000FFFF4FF0E0210428086903D020F073
:101FB00004000861704740F00400FAE7704710B56C
:101FC000401EB0F1807F01D3012010BD4FF0E0240E
:101FD00060610F21601700F057FB0020A06107200F
:101FE0002061002010BD10B5FFF7E8FF10BD70475D
:101FF000704730B590F83820012A20D0012280F8AF
:102000003820022380F8393003685C6824F07004BB
:102010005C6003685C680D682C435C6003689C68C6
:1020200024F080049C6003689C6849680C439C60B1
:1020300080F83920002180F83810084630BD022091
:1020400030BD10B5040003D094F8390010B107E09A
:10205000012010BD002084F83800204600F00CF864
:10206000022084F83900211D206800F04FFC012077
:1020700084F83900002010BD08B500680B4988427B
:1020800012D10B48016841F0100101600068002284
:1020900000F01000009011463620FFF7D5FCBDE897
:1020A00008403620FFF7C4BC08BD00000010004007
:1020B000403802400168CA6842F00102CA60006804
:1020C000016841F001010160002070470168CA68A1
:1020D00022F00102CA600068016A41F21112114245
:1020E00007D1016A9210114203D1016821F0010168
:1020F000016000207047704770B5044600680169B0
:102100004FF00005C943890715D4C168C943890741
:1021100011D4E91E016101202076206880698007C2
:10212000204602D0FFF7E7FF04E000F098F82046D1
:1021300000F096F8257620680169C943490717D44D
:10214000C168C943490713D46FF00401016102203B
:1021500020762068806910F4407F204602D0FFF787
:10216000CAFF04E000F07BF8204600F079F82576FD
:1021700020680169C943090716D4C168C943090722
:1021800012D46FF008010161042020762068C06934
:102190008007204602D0FFF7AEFF04E000F05FF8B2
:1021A000204600F05DF8257620680169C943C9061C
:1021B00017D4C168C943C90613D46FF01001016177
:1021C000082020762068C06910F4407F204602D0A5
:1021D000FFF791FF04E000F042F8204600F040F8DD
:1021E000257620680169C943C90708D1C168C94378
:1021F000C90704D1891E0161204600F032F8206829
:102200000169C943090609D4C168C943090605D44F
:102210006FF0800101612046FFF7E9FE2068016947
:10222000C943490609D4C168C943490605D46FF0BA
:1022300040010161204600F015F820680169C9439A
:1022400089060BD4C168C943890607D46FF0200101
:1022500001612046BDE87040FFF7CABE70BD7047FF
:10226000704770477047704770B504460068012694
:10227000C16821F4F071C1602068416921F0010159
:102280004161206B002538B121684969090602D5F2
:102290001E49016500E00565606B38B12168496938
:1022A000490602D51A49016500E0056520684169C3
:1022B00009060CD5416921F080014161206B30B1E4
:1022C000FFF7C6F810B1206B056500E00026206816
:1022D000416949060BD5416921F040014161606BBC
:1022E00028B1FFF7B5F870B1606B056500E056B135
:1022F000E584E585E563202084F8390084F83A0018
:102300002046FFF7B0FF002070BD0000072A00083C
:10231000DD2900087047000070B5026804461068A7
:10232000D168536910F00F0F50D003F0010501F48C
:10233000907635435DD0C20705D0CA0503D5E26B60
:1023400042F00102E263420705D5DA0703D0E26BEF
:1023500042F00202E263820705D5DA0703D0E26B9E
:1023600042F00402E263020705D5DA0703D0E26B0C
:1023700042F00802E263E26B002A33D0800604D503
:10238000880602D5204600F061FB20684069E16BB9
:10239000C0F38010090700D428B3204600F048FBA2
:1023A0002068416949061AD5416921F0400141611F
:1023B000606BA0B11B490165606BFFF749F800280D
:1023C00010D0606B016DBDE870400847830610D5E2
:1023D0008B060ED52046BDE8704000F037BB204686
:1023E000FFF798FF70BD2046FFF794FF0020E063E1
:1023F00070BD030606D50B0604D52046BDE8704027
:1024000000F0C0BC4006F3D54806F1D5D16820469F
:1024100021F04001D160202184F8391000F0A8F8A3
:1024200070BD0000CD29000870B5040004D094F8F8
:102430003900002510B106E0012070BD84F8385045
:10244000204600F023F8242084F839002068C16871
:1024500021F40051C160204600F03EFB2068016974
:1024600021F4904101612068416921F02A01416114
:102470002068C16841F40051C160E563202084F800
:10248000390084F83A00002070BD000000B50068F3
:10249000124987B088421FD11148016841F4802158
:1024A00001600068694600F4802005904FF4407098
:1024B0000090022001900120029003200390072049
:1024C00004900848FFF74CF9002201212720FFF76C
:1024D000BBFA2720FFF7ACFA07B000BD0048004068
:1024E00040380240000C024090F83A30202B1DD1B9
:1024F000D1B1CAB190F83830012B17D081628285F2
:10250000C2850021C163222280F83A2080F8381069
:1025100001684A6942F001024A610068C16841F4F9
:102520009071C16000207047012070470220704701
:10253000704790F83930202B18D1A9B1A2B190F88A
:102540003830012B12D001628284C2840021C16321
:10255000212280F8392080F838100068C16841F0E5
:102560008001C16000207047012070470220704741
:102570007047FEE77FB524482249012401604FF4EB
:10258000403100250461C0E9011520490562C0E918
:102590000A150526C560C0E9064604634461FEF7D6
:1025A0005EFE00B1FEE707200095CDE901406946D7
:1025B0001548FEF7ABFD00B1FEE700940224694622
:1025C00011480194FEF7A2FD00B1FEE70094032438
:1025D00069460D480194FEF799FD00B1FEE70094AD
:1025E0000424694608480194FEF790FD00B1FEE717
:1025F000CDE9004669460448FEF788FD002800D072
:10260000FEE77FBD00200140480000200100000FD0
:1026100030B51A4887B00024016841F0800101609C
:10262000016801F080010591016841F0010101603C
:10263000016801F001010591016841F008010160A4
:1026400000680F4D00F00800012205901103284694
:10265000FFF75EF900224FF400512846FFF758F9C2
:102660004FF4405000900120CDE90104694628460E
:102670000394FFF775F807B030BD00003038024012
:10268000000C0240FEE770470907090E002806DA31
:1026900000F00F0000F1E02080F8141D704700F1F9
:1026A000E02080F800147047704700001CB5114905
:1026B0000F4A00240A604AF20F4240004A60C1E912
:1026C00002400846FFF7BDFC20B140F2A3110AA06A
:1026D00000F0F7FC0094694606480194FFF789FC76
:1026E000002804D04FF4D57103A000F0EAFC1CBD13
:1026F00000100040900000202E2E2F5372632F7385
:10270000746D3332663478785F69742E630000002C
:10271000704700002DE9F0432D4D2DED028B89B05F
:10272000E889401C80B2E881A989884247D3002704
:10273000DFF8A090EF813C4605F11E0809F583669D
:1027400038F81400FDF786FE41EC180B39F8140038
:10275000FDF780FE53EC182BFDF70DFE06EBC402CF
:10276000641CC2E90001052CEADB1B480068C004B8
:1027700002D50120287000E02F702878089096ED8F
:10278000080B16498DED060B96ED060B14488DEDE2
:10279000040B96ED040B8DED020B96ED020B8DED07
:1027A000000B96ED000B53EC102B00F08BFC0C484B
:1027B000FDF75BFD82B20A490A48FFF7BAFEFFF750
:1027C000B3F809B0BDEC028BBDE8F043FFF70BBCDA
:1027D00000000020A8010020140C0240E43B000887
:1027E000E8050020CC00002030B5244893B0002537
:1027F000016841F080510160006800F08050119044
:102800001F48016841F4804101600068022400F41F
:102810008040119001200090000401908001CDE9DA
:10282000064008AA0420A82182E813000B906846FD
:10283000FFF72AFA00B1FEE70CA90F2081E831006A
:102840004FF4A0500F904FF48050109005210CA829
:10285000FFF72CF900B1FEE7FFF7C0F94FF47A71EA
:10286000B0FBF1F0FFF7ABFB0420FFF79BFB00226E
:102870001146501EFFF7E8F813B030BD4038024053
:10288000007000401048016841F4700101600F4879
:10289000016841F0010101600C4A00210832116019
:1028A00002680B4B1A400260031D0A4A1A60026854
:1028B00022F48022026005480C300160024958066B
:1028C000803908607047000088ED00E00038024061
:1028D000FFFFF6FE1030002410B50948FFF70CFC8E
:1028E0000748FFF7F3FB07480088B0F53A7F06D8A2
:1028F0000122BDE8104011030348FFF709B810BDDD
:1029000090000020A8010020000C0240F0B50268F1
:10291000234B244D244E254F254C4FF0804C98429C
:1029200009D0604507D0A84205D0B04203D0B842D4
:1029300001D0A04204D122F0700E4A6842EA0E0291
:1029400098421BD0604519D0A84217D0B04215D08C
:10295000B84213D0A04211D0164DA8420ED0164D49
:10296000A8420BD0154DA84208D0154DA84205D05D
:10297000144DA84202D0144DA84203D122F4407550
:10298000CA682A4302608A68C2620A688262984200
:1029900001D0A04201D10969016301214161F0BD6B
:1029A000000001400004004000080040000C00400E
:1029B0000004014000400140004401400048014043
:1029C00000180040001C00400020004010B5806B43
:1029D0000021C185C184FFF79DFC10BD10B5806B3F
:1029E0000021426B1165026B12B1126D002A09D1F0
:1029F000C184C185C163202180F8391080F83A1064
:102A0000FFF731FC10BD10B5806B0021026B116522
:102A1000426B12B1126D002A09D1C184C185C16314
:102A2000202180F8391080F83A10FFF71CFC10BD07
:102A30000168CA6822F49072CA6001684A6922F08B
:102A400001024A61202180F83A10704710B590F8D1
:102A50003A10222901D0022010BD8168B1F5805FB3
:102A600011D00169002901681FD0496801F07F0376
:102A7000816A4A1C82620B70C18D491E0904090CCF
:102A8000C18518D026E00269816A002A026852686E
:102A900005D0D2B20A80816A491C8162ECE7C2F398
:102AA00008020A80816A891CF7E74A68816A4B1C20
:102AB00083620A70E0E70168CA6822F49072CA6013
:102AC00001684A6922F001024A61202180F83A1027
:102AD000FFF72EFD002010BD2DE9F04104460068EF
:102AE000016921F44052E168114301612168C8681D
:102AF00049F20C6290432369A268E5691A4363694D
:102B00002B431A430243CA602168486920F440728B
:102B1000A06910434861E1696425B1F5004F974809
:102B2000974A21684FF032083FD0914201D081424C
:102B30007CD1FFF769F800EBC00101EB0010616880
:102B40008900B0FBF1F6FFF75FF800EBC00101EB85
:102B5000001061688900B0FBF1F0B0FBF5F06FF098
:102B60001801484306EB800108EB0110B0FBF5F0BB
:102B700000F0F006FFF748F800EBC00101EB001091
:102B800061688900B0FBF1F0B0FBF5F006EB0016D0
:102B9000FFF73AF800EBC00101EB00106168890013
:102BA000B0FBF1F7FFF730F8D2E0914201D081425B
:102BB0003DD1FFF729F800EBC00101EB001061687F
:102BC0004900B0FBF1F0B0FBF5F00601FFF71CF88F
:102BD00000EBC00101EB001061684900B0FBF1F7A8
:102BE000FFF712F800EBC00101EB0010616849002B
:102BF000B0FBF1F0B0FBF5F06FF01801484307EBC4
:102C0000800108EBC100B0FBF5F000F0F80006EB26
:102C10004006FEF7F9FF00EBC00101EB0010616810
:102C20004900B0FBF1F7FEF7EFFF3CE055E0FEF79F
:102C3000DBFF00EBC00101EB001061684900B0FB55
:102C4000F1F0B0FBF5F00601FEF7CEFF00EBC0019E
:102C500001EB001061684900B0FBF1F7FEF7C4FF1B
:102C600000EBC00101EB001061684900B0FBF1F01E
:102C7000B0FBF5F06FF01801484307EB800108EB5B
:102C8000C100B0FBF5F000F0F80006EB4006FEF7DF
:102C9000ABFF00EBC00101EB001061684900B0FB25
:102CA000F1F7FEF7A1FF00EBC00101EB0010616836
:102CB0004900B0FBF1F0B0FBF5F06FF018014843AC
:102CC00007EB800108EBC100B0FBF5F000F0070056
:102CD000216830448860BDE8F081FEF785FF00EB95
:102CE000C00101EB001061688900B0FBF1F6FEF74E
:102CF0007BFF00EBC00101EB001061688900B0FBB5
:102D0000F1F0B0FBF5F06FF01801484306EB8001DD
:102D100008EB0110B0FBF5F000F0F006FEF764FFE1
:102D200000EBC00101EB001061688900B0FBF1F01D
:102D3000B0FBF5F006EB0016FEF756FF00EBC00106
:102D400001EB001061688900B0FBF1F7FEF74CFF62
:102D500000EBC00101EB001061688900B0FBF1F0ED
:102D6000B0FBF5F06FF01801484307EB800108EB6A
:102D70000110B0FBF5F000F00F00A9E700140140CE
:102D80000010014090F83910212901D0022070472D
:102D90008168B1F5805F016A0BD04A1C026202684B
:102DA00009785160C18C491E0904090CC1840ED0F8
:102DB00017E009880268C1F3080151600169002920
:102DC000016A02D0491C0162ECE7891CFBE701683B
:102DD000CA6822F08002CA600068C16841F0400100
:102DE000C16000207047000070B58E482DED048B47
:102DF00082B0FFF791FA8B4C20680168C943C9067D
:102E00007ED4C168C9067BD5016800254068009062
:102E1000A08DE18D401A86B22046FFF725FAE585A0
:102E200094F8391094F83A0001432020232926D041
:102E300084F8390084F83A007B4C7CA12046FDF7E9
:102E400002FA9FED7B8B7C4DA0421CD1E01C00F070
:102E500053F99FED7A1B51EC100B53EC112BFDF73E
:102E600018FA9FED781B53EC112BFDF784FA53EC05
:102E7000182BFDF70EFAFDF7FAFA6880AEE0212173
:102E800084F83910D6E771A12046FDF7DCF99FEDF3
:102E9000719BA0421CD1E01C00F02EF99FED6F1B2E
:102EA00051EC100B53EC112BFDF765FA9FED6D1BE8
:102EB00053EC112BFDF7EDF953EC192BFDF75BFAF1
:102EC00053EC182BFDF7E5F9FDF7D1FAA88023E0C4
:102ED00066A12046FDF7B7F9A04225D1E01C00F01D
:102EE0000BF99FED641B51EC100B53EC112BFDF70C
:102EF00042FA9FED621B53EC112BFDF7CAF900E07B
:102F00008CE053EC192BFDF736FA53EC182BFDF738
:102F1000C0F9FDF7ACFAE88047481530FDF7A5F990
:102F2000454982B2153156E056A12046FDF78BF98E
:102F3000A0421CD1E01C00F0DFF89FED541B51ECC7
:102F4000100B53EC112BFDF716FA9FED521B53ECAF
:102F5000112BFDF79EF953EC192BFDF70CFA53ECEE
:102F6000182BFDF796F9FDF782FA2881D4E74BA1DB
:102F70002046FDF768F9A0421CD1E01C00F0BCF827
:102F80009FED481B51EC100B53EC112BFDF7F3F99F
:102F90009FED461B53EC112BFDF77BF953EC192BDE
:102FA000FDF7E9F953EC182BFDF773F9FDF75FFA1C
:102FB0006881B1E73FA12046FDF745F9A04222D143
:102FC0003D480068C00717D01B482830FDF74DF971
:102FD000194982B228311348FFF7ABFA314612483B
:102FE000FDF726F902B03222BDEC048BBDE870403B
:102FF0000D490C48FFF778BAE01CFDF73DF980B2A7
:10300000FFF754FB88E72DA12046FDF71CF9A042ED
:10301000E4D1E01CFDF730F9A8817DE702B0BDECFA
:10302000048B70BDCC00002016010020534320000B
:103030000000000000FEAF40000000200000000083
:1030400000004E400000000000C8A9405356312047
:10305000000000006666666666660A4000000000C2
:10306000008893400000000000406F40535632201B
:103070000000000000000000001895400000000063
:1030800000E07540535633200000000000000000AF
:1030900000C899400000000000508440535634207E
:1030A0000000000000000000005CB24000000000D2
:1030B00000E8AC405354200000100040534C200066
:1030C000FEE7FEE70FB4084B10B504A902AA039867
:1030D00000F014F9044602A9002000F0A6FC2046E6
:1030E00010BC5DF814FB00002B3A00080048704744
:1030F000440000200000000030B583B0044600F01A
:1031000017F89FED090B05468DED000B00222146B7
:103110006846FDF716FA284600F020F89DED000BF2
:1031200003B030BD000000000000000000000000FF
:1031300001480068704700004400002002E008C811
:10314000121F08C1002AFAD170477047002001E021
:1031500001C1121F002AFBD170470000014908601D
:1031600070470000440000202DE9FF5F82B000217D
:10317000DDE90430020DDDF840B0034318D044F619
:103180001050A2F2FF3242431514119801281FD0AB
:10319000A5EB0B00401C5FEA000A4FF000064E4F03
:1031A000DFF83891B046504615D5CAF1000413E057
:1031B000119801244AA3012801D16FEA0B0102985A
:1031C000119AC0E90031C0E9024206B0BDE8F09FA3
:1031D000CBF10000DFE704460021404A491842EBEA
:1031E0000450CDE9001012E0E00707D032463B461C
:1031F00040464946FDF74DF88046894632463B46F3
:1032000010461946FDF745F806460F466410002C97
:10321000EAD1DDE90401DDE90023BAF1000F06DAA5
:10322000FDF737F842464B46FDF733F805E0FDF76A
:10323000A2F842464B46FDF79EF804460E46002291
:10324000284BFDF705FB03D84FF0FF30014607E0A0
:103250000022254B20463146FDF73BFAFDF7E0FA08
:10326000102409E0002C0ADB0A220023FCF7A8FF47
:10327000039B30321A55641E50EA0102F2D1641CDD
:10328000039AC4F111031444119A012A03D00122B4
:1032900008430DD10AE0084304D000204FF0110B81
:1032A000119072E7A3EB0B056D1E0DE05B4504DD8D
:1032B0004FF0000205F1010504E003DA4FF00002CF
:1032C000A5F10105002AECD002981199C0E902315C
:1032D000C0E9004579E70000000014400000F03F1D
:1032E000300000000000F0430000E03F30380A28C2
:1032F00001D2012070470020704700002DE9FF4FE8
:1033000095B09B468946064600250FE2252877D1D1
:1033100000242746F84A0121059400E0044316F8EA
:10332000013F203B01FA03F01042F7D130782A2800
:1033300011D06FF02F033078A0F13002092A16D88F
:10334000059A44F0020402EB820203EB42021044AD
:10335000761C0590EFE759F8042B0592002A03DA52
:10336000504244F40054059044F00204761C307836
:103370002E2816D116F8010F44F004042A280DD087
:103380006FF02F023078A0F13003092B09D807EB3A
:10339000870302EB4303C718761CF3E759F8047B55
:1033A000761C30786C280FD006DC4C2817D06828A3
:1033B0000DD06A2814D104E0742810D07A280FD1D7
:1033C0000DE044F400140AE044F4801401E044F4F5
:1033D00040147278824202D104F58014761C761C67
:1033E000307866280BD013DC582877D009DC002809
:1033F00075D04528F6D04628F4D047281AD19DE14B
:1034000018E0632835D0642879D0652812D195E179
:10341000702873D008DC6728F1D069286FD06E2837
:103420000DD06F2806D1B5E073282CD0752875D043
:10343000782874D05A46179990476D1C75E1C4F3EB
:103440000250022809D003280DD0D9F80010042812
:103450000DD00D6009F1040967E1D9F80010EA17F1
:10346000C1E90052F6E7D9F800100D80F2E70D70BF
:10347000F0E719F8041B8DF8001000208DF801000A
:10348000EA46012003E059F804AB4FF0FF30610732
:103490004FF0000102D40DE008F101018846B94265
:1034A0000FDA8045F8DB1AF808100029F4D108E09B
:1034B00008F1010188468142FADB1AF80810002958
:1034C000F6D105985B46A0EB080721463846179AC7
:1034D00000F094FA284400EB080507E04DE029E1EC
:1034E0000DE01AF8010B5A4617999047B8F10108F8
:1034F000F7D25B4621463846179A13E142E00A228A
:103500000092C4F302524FF0000A022A08D059F880
:1035100004CB032A4FEAEC710AD00DE029E02AE03F
:1035200009F1070121F00702F2E802C1914609E022
:103530000FFA8CFC4FEAEC71042A03D14FFA8CFC91
:103540004FEAEC71002907DA0A460021DCF1000C91
:1035500061EB02012D2202E0220504D52B228DF819
:103560000420012203E0E20701D02022F7E7904681
:1035700059E00A2102E010220DE010214FF0000A6C
:1035800000910BE010224FF0000A44F004040827D9
:10359000009203E008224FF0000A0092C4F30252A6
:1035A000022A05D059F804CB0021032A08D009E0EB
:1035B00009F1070121F00702F2E802C1914605E096
:1035C0001FFA8CFC042A01D10CF0FF0C4FF000080C
:1035D000220728D5702806D0009B83F0100353EAF9
:1035E0000A0305D00EE040228DF80420012208E0F5
:1035F0005CEA010206D030228DF804208DF8050027
:1036000002229046009B83F0080353EA0A030AD182
:103610005CEA010201D1620705D530228DF8042051
:103620004FF001087F1E582804D034A003900EA844
:1036300002900DE036A0F9E753466046009AFCF789
:10364000BFFD84460398825C0298401E029002707F
:103650005CEA0100F0D1029806A9081A00F1200ADC
:10366000600702D524F4803400E00127574502DDCD
:10367000A7EB0A0000E0002000EB0A01009005988B
:103680004144401A0590E00306D45B462146179A50
:10369000059800F0B3F90544002706E001A85A4652
:1036A000C05D179990476D1C7F1C4745F6DBE00312
:1036B0000CD55B462146179A059800F09FF9054402
:1036C00004E030205A46179990476D1C0099481E17
:1036D00000900029F5DC08E0029802995A4600782B
:1036E000491C0291179990476D1CBAF10001AAF18B
:1036F000010AF1DC65E100000928010030313233B4
:10370000343536373839616263646566000000001D
:103710003031323334353637383941424344454607
:103720000000000000F058F90544761C30780028AD
:103730007FF4ECAD19B02846BDE8F08F620700D4E5
:10374000062709F1070222F0070CFCE80223E146F4
:1037500003F000485FEA080C02D00FF2702C0DE075
:103760005FEA045C02D50FF2682C07E05FEAC47CD4
:1037700002D00FF2602C01E0AFF2700C4FF0FF3876
:1037800023F00043CDF850C065280CD006DC452856
:1037900009D046281DD047283DD13DE0662818D0E5
:1037A00067287ED138E00021112F01DB112000E0D5
:1037B000781CCDE9000106A90EA8FFF7D5FCDDE9CC
:1037C0000F010E9A03910021009207F1010A049162
:1037D0004DE04FF000400097CDE9011006A90EA87A
:1037E000FFF7C2FCDDE90F0203920E9B1199002244
:1037F000DDF80CA00093049211B9791C00EB010ACA
:10380000B7EB0A0004D4C0F1FF3007F1010A0490BD
:10381000AAEB0700019044E0012F00DA0127002104
:10382000112F01DD112000E03846CDE9000106A985
:103830000EA8FFF799FCDDE90F010E9A0391002114
:1038400004910092BA4621070CD40399514500DA3D
:103850008A46BAF1010F05DD009AAAF10101515C17
:10386000302908D0B84202DA10F1040F06DA01213B
:10387000CDE9011015E0AAF10101E9E7002805DC16
:10388000049901440491AAEB000102E0411C514556
:1038900000DD8A460499401A401C01904FF0004018
:1038A0000290200704D40198504501DBCDF8048034
:1038B00000208DF84F0002980DF14F07B0F1004F36
:1038C00025D02B200E9002984FF0020800280CDA29
:1038D000404202902D200E9007E00A210298FCF74A
:1038E000DFFD3031029007F8011DB8F10001A8F1A9
:1038F0000108F2DC02980028EFD1791E0E980870BA
:10390000307800F0200040F0450007F8020D12A8C2
:10391000C01B00F107081498007800B1012000EBEB
:103920000A01019801EBE07105984144401A401EDC
:103930000590E00306D45B462146179A059800F0EF
:103940005DF805441498007818B15A4617999047C5
:103950006D1CE00324D55B462146179A059800F0BC
:103960004DF805441CE00498002807DBDDE903015D
:10397000884203DD0098405C179901E017993020D8
:103980005A469047049805F10105401C049001989F
:10399000401E019004D12E205A46179990476D1C65
:1039A000BAF10001AAF1010ADDDC05E017F8010B0C
:1039B0005A46179990476D1CB8F10001A8F101080B
:1039C000F4DC5B462146179A0598ABE62D00000013
:1039D0002B000000200000002DE9F04104460025E6
:1039E0001E461746880404D405E039462020B04717
:1039F0006D1C641EF9D52846BDE8F0812DE9F04123
:103A0000044600251E469046C80301D5302700E035
:103A10002027880404D505E041463846B0476D1C90
:103A2000641EF9D52846BDE8F0810A68531C0B6076
:103A3000107070471CB5FDF77FFFFEF7D5FEFEF74F
:103A4000E7FD28480024016841F480010160006816
:103A5000224600F48000009021463820FDF7F4FF54
:103A60003820FDF7E5FFFEF785FD20481E4901607F
:103A70004AF20F41C0E9011444F62061C160FEF72B
:103A8000E0FA00B1FEE70094694618480194FEF799
:103A9000B0FA00B1FEE7154815493C3001604FF41B
:103AA000E131C0E901140C21C460C0E90441846122
:103AB000C461FEF7B9FC00B1FEE70C4905227C3178
:103AC000A1F1C400FDF744FC09480C30016841F045
:103AD00010010160054932228631A1F14A00FEF74A
:103AE00003FDFEE730380240001000409000002047
:103AF00000480040F0B5DDE905542678012E0E6837
:103B000004D11F8832F81770F61B0E6006440E6051
:103B10001E8822F816001888401C80B21880A8421F
:103B200003D10120207000201880086814B1B0FB78
:103B3000F5F002E01988B0FBF1F080B2F0BD0006AC
:103B40001016000610160000000000000000010220
:103B500003040607080900000000010203040040F6
:103B60004040404040404040414141414140404050
:103B70004040404040404040404040404040400580
:103B800002020202020202020202020202020220F7
:103B900020202020202020202002020202020202F7
:103BA0009090909090901010101010101010101015
:103BB0001010101010101010101002020202020259
:103BC0008888888888880808080808080808080875
:103BD000080808080808080808080202020240004D
:103BE0005F3B000843757272656E743A202566204B
:103BF000410D0A423120566F6C746167653A202589
:103C00006620560D0A423220566F6C746167653A21
:103C100020256620560D0A423320566F6C7461676A
:103C2000653A20256620560D0A423420566F6C7482
:103C30006167653A20256620560D0A52656C6179E8
:103C40002053746174653A2025640D0A0D0A000042
:103C5000703C000800000020480000003C310008D3
:103C6000B83C000848000020380A00004C31000829
:103C70000000E9024D038804E006BB0DE8030000E4
:103C800000000000000D0A4F4B210D0A00004B0000
:103C9000EB004201E901CF030D0A4552524F522178
:103CA0000D0A0000010000001000000000000000EC
:083CB0000024F40000000000F4
:040000050800018965
:00000001FF
